{
  "address": "0xe0418e12572218B96c8E93a0B7AF770D2DA32037",
  "abi": [
    {
      "anonymous": false,
      "inputs": [
        {
          "indexed": true,
          "internalType": "address",
          "name": "user",
          "type": "address"
        },
        {
          "indexed": false,
          "internalType": "uint256",
          "name": "amount",
          "type": "uint256"
        }
      ],
      "name": "Mint",
      "type": "event"
    },
    {
      "anonymous": false,
      "inputs": [
        {
          "indexed": true,
          "internalType": "address",
          "name": "user",
          "type": "address"
        },
        {
          "indexed": false,
          "internalType": "uint256",
          "name": "amount",
          "type": "uint256"
        }
      ],
      "name": "ReverseSwap",
      "type": "event"
    },
    {
      "anonymous": false,
      "inputs": [
        {
          "indexed": true,
          "internalType": "address",
          "name": "user",
          "type": "address"
        },
        {
          "indexed": false,
          "internalType": "uint256",
          "name": "amount",
          "type": "uint256"
        }
      ],
      "name": "Swap",
      "type": "event"
    },
    {
      "inputs": [
        {
          "internalType": "address",
          "name": "",
          "type": "address"
        }
      ],
      "name": "balances",
      "outputs": [
        {
          "internalType": "uint256",
          "name": "",
          "type": "uint256"
        }
      ],
      "stateMutability": "view",
      "type": "function"
    },
    {
      "inputs": [],
      "name": "deposit",
      "outputs": [],
      "stateMutability": "payable",
      "type": "function"
    },
    {
      "inputs": [
        {
          "internalType": "address",
          "name": "user",
          "type": "address"
        }
      ],
      "name": "getBalance",
      "outputs": [
        {
          "internalType": "uint256",
          "name": "",
          "type": "uint256"
        }
      ],
      "stateMutability": "view",
      "type": "function"
    },
    {
      "inputs": [
        {
          "internalType": "address",
          "name": "user",
          "type": "address"
        }
      ],
      "name": "getTokenBalance",
      "outputs": [
        {
          "internalType": "uint256",
          "name": "",
          "type": "uint256"
        }
      ],
      "stateMutability": "view",
      "type": "function"
    },
    {
      "inputs": [],
      "name": "resetBalances",
      "outputs": [],
      "stateMutability": "nonpayable",
      "type": "function"
    },
    {
      "inputs": [
        {
          "internalType": "uint256",
          "name": "amount",
          "type": "uint256"
        }
      ],
      "name": "reverseSwap",
      "outputs": [],
      "stateMutability": "nonpayable",
      "type": "function"
    },
    {
      "inputs": [
        {
          "internalType": "uint256",
          "name": "amount",
          "type": "uint256"
        }
      ],
      "name": "swap",
      "outputs": [],
      "stateMutability": "nonpayable",
      "type": "function"
    },
    {
      "inputs": [
        {
          "internalType": "address",
          "name": "",
          "type": "address"
        }
      ],
      "name": "tokenBalances",
      "outputs": [
        {
          "internalType": "uint256",
          "name": "",
          "type": "uint256"
        }
      ],
      "stateMutability": "view",
      "type": "function"
    },
    {
      "inputs": [
        {
          "internalType": "uint256",
          "name": "",
          "type": "uint256"
        }
      ],
      "name": "users",
      "outputs": [
        {
          "internalType": "address",
          "name": "",
          "type": "address"
        }
      ],
      "stateMutability": "view",
      "type": "function"
    }
  ],
  "transactionHash": "0x55471806107057d8cc999dc5694b9302536902a7a672d1b913d1c0335adf6ab9",
  "args": [],
  "numDeployments": 1,
  "solcInputHash": "77cea40a865b34b4832f78ea1287c18d",
  "bytecode": "0x608060405234801561001057600080fd5b506106b4806100206000396000f3fe6080604052600436106100865760003560e01c8063523fba7f11610059578063523fba7f1461015b5780635f943e8f1461018857806394b918de1461019d578063d0e30db0146101bd578063f8b2cb4f146101c557600080fd5b806327e235e31461008b578063365b98b2146100cb57806337c1caf4146101035780633aecd0e314610125575b600080fd5b34801561009757600080fd5b506100b86100a63660046105c4565b60006020819052908152604090205481565b6040519081526020015b60405180910390f35b3480156100d757600080fd5b506100eb6100e63660046105f4565b6101fb565b6040516001600160a01b0390911681526020016100c2565b34801561010f57600080fd5b5061012361011e3660046105f4565b610225565b005b34801561013157600080fd5b506100b86101403660046105c4565b6001600160a01b031660009081526001602052604090205490565b34801561016757600080fd5b506100b86101763660046105c4565b60016020526000908152604090205481565b34801561019457600080fd5b50610123610338565b3480156101a957600080fd5b506101236101b83660046105f4565b6103e4565b610123610499565b3480156101d157600080fd5b506100b86101e03660046105c4565b6001600160a01b031660009081526020819052604090205490565b6002818154811061020b57600080fd5b6000918252602090912001546001600160a01b0316905081565b336000908152602081905260409020548111156102895760405162461bcd60e51b815260206004820152601a60248201527f496e73756666696369656e742065746865722062616c616e636500000000000060448201526064015b60405180910390fd5b33600090815260208190526040812080548392906102a8908490610623565b909155505033600090815260016020526040812080548392906102cc90849061063c565b9091555050604051339082156108fc029083906000818181858888f193505050501580156102fe573d6000803e3d6000fd5b5060405181815233907fcb349a52f7623dceb3488df189d3bd41decbf1f263ace6a89203466fa6b5fccf906020015b60405180910390a250565b60005b6002548110156103d55760008060006002848154811061035d5761035d61064f565b60009182526020808320909101546001600160a01b031683528201929092526040018120919091556002805460019183918590811061039e5761039e61064f565b60009182526020808320909101546001600160a01b03168352820192909252604001902055806103cd81610665565b91505061033b565b506103e26002600061058a565b565b336000908152600160205260409020548111156104435760405162461bcd60e51b815260206004820152601a60248201527f496e73756666696369656e7420746f6b656e2062616c616e63650000000000006044820152606401610280565b3360009081526001602052604081208054839290610462908490610623565b909155505060405181815233907f562c219552544ec4c9d7a8eb850f80ea152973e315372bf4999fe7c953ea004f9060200161032d565b336000908152602081905260409020541580156104c3575033600090815260016020526040902054155b1561050b57600280546001810182556000919091527f405787fa12a823e0f2b7631cc41b3ba8828b3321ca811111fa75cd3aa3bb5ace0180546001600160a01b031916331790555b336000908152602081905260408120805434929061052a90849061063c565b9091555050336000908152600160205260408120805434929061054e90849061063c565b909155505060405134815233907f0f6798a560793a54c3bcfe86a93cde1e73087d944c0ea20544137d41213968859060200160405180910390a2565b50805460008255906000526020600020908101906105a891906105ab565b50565b5b808211156105c057600081556001016105ac565b5090565b6000602082840312156105d657600080fd5b81356001600160a01b03811681146105ed57600080fd5b9392505050565b60006020828403121561060657600080fd5b5035919050565b634e487b7160e01b600052601160045260246000fd5b818103818111156106365761063661060d565b92915050565b808201808211156106365761063661060d565b634e487b7160e01b600052603260045260246000fd5b6000600182016106775761067761060d565b506001019056fea26469706673582212209b8a08440b03545c7adccfb08d21492a6661f56508beec22b682d074b31b7a8964736f6c63430008130033",
  "devdoc": {
    "kind": "dev",
    "methods": {},
    "version": 1
  },
  "userdoc": {
    "kind": "user",
    "methods": {},
    "version": 1
  },
  "storageLayout": {
    "storage": [
      {
        "astId": 324,
        "contract": "contracts/MockSwap.sol:MockSwap",
        "label": "balances",
        "offset": 0,
        "slot": "0",
        "type": "t_mapping(t_address,t_uint256)"
      },
      {
        "astId": 328,
        "contract": "contracts/MockSwap.sol:MockSwap",
        "label": "tokenBalances",
        "offset": 0,
        "slot": "1",
        "type": "t_mapping(t_address,t_uint256)"
      },
      {
        "astId": 331,
        "contract": "contracts/MockSwap.sol:MockSwap",
        "label": "users",
        "offset": 0,
        "slot": "2",
        "type": "t_array(t_address)dyn_storage"
      }
    ],
    "types": {
      "t_address": {
        "encoding": "inplace",
        "label": "address",
        "numberOfBytes": "20"
      },
      "t_array(t_address)dyn_storage": {
        "base": "t_address",
        "encoding": "dynamic_array",
        "label": "address[]",
        "numberOfBytes": "32"
      },
      "t_mapping(t_address,t_uint256)": {
        "encoding": "mapping",
        "key": "t_address",
        "label": "mapping(address => uint256)",
        "numberOfBytes": "32",
        "value": "t_uint256"
      },
      "t_uint256": {
        "encoding": "inplace",
        "label": "uint256",
        "numberOfBytes": "32"
      }
    }
  }
}